:020000040000FA
:0400000080314028E3
:100008007E1480314E01961E0A280B2813288C1E58
:100018000E280F2813288231612280313E28161EAF
:10002800162817281F280C1E1A281B281F2883315A
:10003800242380313E280B1F222823283E28171C02
:10004800262827282F280D1C2A282B282F288231DC
:10005800E72280313E28171E322833283E280D1EFD
:10006800362837283E28400165088A0064080A00B7
:1000780080313E287E10090080314228FC01203062
:10008800840000308500213083313D238031A03049
:10009800840000308500203083313D2380317E107C
:1000A800400181311729FB00400141088600870182
:1000B800403FC300413FC400430884004408850012
:1000C8001200253A031D69286A28AF2841088600CE
:1000D80087010130810741310318810AB201B30158
:1000E800B601B701FF30B400FF30B5004108860003
:1000F8008701403FC300413FC400430884004408CF
:1001080085001200253A031D8A288B28A428410857
:10011800860087010130810741310318810A2530A3
:10012800F3000030F4007B08C3004308F500813178
:100138005821803101304001C1000030C200D2286E
:100148004108860087010130810741310318810A7F
:10015800C101C201D228410886008701403FC3007F
:10016800413FC40043088400440885000008C500D6
:10017800C6014508F3004608F4007B08C700470895
:10018800F5008131582180314001410886008701FE
:100198000130810741310318810A9E280800400177
:1001A800980199019A013B30920070309300AF306A
:1001B80094009B307E01CE00D030C3001330B800CD
:1001C800C401B9010430CF00BA01C501D0013730EC
:1001D800BB00F030C600FF30D1003F30BC00F0302B
:1001E800C700FF30D2005511541553118B30F10060
:1001F8000330F20083314F2380314E01161612303E
:100208007D01C300053092000D30CB001630C500CB
:1002180005307E019F000830A4000730A600153085
:100228007D01C60008008231282281318B170B1707
:100238007C304001D0008330D1008231B622813138
:100248004001401D28292929412940110310181D62
:1002580003140318302933294001181535294001A2
:1002680018111B30D0008330D1008231B622813181
:10027800CC3083311123813124292D30D0008330B3
:10028800D1008231B622813102304001D50045309B
:10029800D400A930890B4E29D40B4E29D50B4E29F1
:1002A8000032242980314028750803195C295D290A
:1002B80062297508031D612962296729730883313A
:1002C8004323813196297508033E8600870116006D
:1002D80001040319702971298E297508033E8600C7
:1002E8008701403FF600413FF700750A8600870105
:1002F800403FF800413FF9007908803AFA00770852
:10030800803A7A02031D8A297608780203188D2913
:100318008E299629750A86008701013081074131A7
:100328000318810A08007C08203E860087018101A5
:1003380042011D1DA029A129AC297C08203E860068
:1003480087018114400161088A0060080A00813130
:1003580042019D1CB029B129BC297C08203E860099
:100368008701011540015F088A005E080A00813193
:100378007C08203E8600870101080319C429C52985
:10038800CC2940015D088A005C080A008131CF2928
:1003980082314722813108004E0117129730F1004F
:1003A8000130F200833155238131083042019F002A
:1003B80090309D0024309E0019309B009C018F30A6
:1003C800F1000330F2008331612381318030F10084
:1003D8000330F20083315B2381318430F100033034
:1003E800F2008331672381314001BA01FC01BC016D
:1003F800BB014E01171608004001CD004908CF0087
:100408004808CE00B001B1011A2A4E30CB004B0883
:10041800C1004A08CC004C08C2004D088031572062
:10042800823140014108B0074208B13D4E088400BE
:100438004F0885001200031D222A232A092A3108A1
:10044800C9003008C800080082318E22823180310C
:10045800D3208231833173238231833188238231DF
:100468008231C82282318331352382318231F622AA
:1004780082318231782282318231A32282318131E4
:10048800D0218231080042011908F0007C08283E7A
:1004980086008701700881000130F0007008FC07B1
:1004A80008307C02031C592A5A2A5B2AFC010130B5
:1004B800F00070084001BB0708004E018C120130A3
:1004C8004001B8070030B93D9030390200300319B7
:1004D8003802031C702A712A772A83310423823157
:1004E8004001B801B901080044018F019001910150
:1004F800FF308D00FE308C004E018D1244010D0836
:100508004001D90044010C084001D80001304401E1
:100518008E00080016307D01C5001530C600073072
:100528007E01A6000830A400403043018F009001EE
:1005380001308D00400114134301901208008030EF
:100548004B019F004E309D009C014E018C12961667
:100558008E30F1000330F2008331492382314B01A0
:100568009E01080052304001D2005208D3005108C1
:10057800C9005008C8005330D2005208CA000030E1
:10058800823100228231080041019E019B019C01B9
:1005980035309D004E0117149030F1000330F20001
:1005A80083316D2382310800400162086304031916
:1005B800DE2ADF2AE42A63088A0062080A008231F8
:1005C8007E01551108004E010D1040015A085B04C8
:1005D8000319EF2AF02AF52A5B088A005A080A004C
:1005E800823108000130450190008F019101FF30F0
:1005F8008D008C014E010D13833045018E000800DB
:1006080040015608570403190A2B0B2B102B5708C7
:100618008A0056080A0083310800F1004E018D1D3A
:10062800162B172B122B710842019A0008007434FC
:100638006F34673467346C3469346E34673400342B
:100648007E01551D282B292B2C2B8231D822833152
:1006580008006C346F346F34703469346E34673426
:1006680000348030460196007F309500C0309400F9
:100678000800640080010131890B3E2B0034F20030
:100688007208833111238331080072084001D700B2
:100698007108D600080072084001E3007108E20002
:1006A800080072084001E5007108E40008007208BB
:1006B8004001DF007108DE00080072084001E10017
:1006C8007108E000080072084001DD007108DC00D4
:1006D800080072084001DB007108DA0008005101C7
:1006E8009101930192010800003440340134003430
:1006F800683465347934003442011D121D1608002F
:10070800823147228331080050018C0108004001E2
:0A0718004015080008000800080062
:020000040001F9
:04000E00ED3FE637A5
:04001400FF1FFF3F8C
:00000001FF
