:020000040000FA
:0400000080312728FC
:100008007E1480314E01161E0A280B2812280C1E59
:100018000E280F2812288331212380310B1F152821
:10002800162825284E01171E1A281B2825280D1EBC
:100038001E281F28252840015D088A005C080A0040
:1000480080317E1009008031292883317C2380315A
:10005800DE0083317D238031DF00FC012030840005
:10006800003085002130833132238031A030840074
:100078000030850020308331322380317E104001EA
:100088008131D229FB004001410886008701403FA9
:10009800C300413FC400430884004408850012009F
:1000A800253A031D582859289E28410886008701AB
:1000B8000130810741310318810AB201B301B60149
:1000C800B701FF30B400FF30B50041088600870152
:1000D800403FC300413FC4004308840044088500F2
:1000E8001200253A031D79287A28932841088600AA
:1000F80087010130810741310318810A2530F30057
:100108000030F4007B08C3004308F5008131112159
:10011800803101304001C1000030C200C1284108CF
:10012800860087010130810741310318810AC10126
:10013800C201C128410886008701403FC300413FF2
:10014800C40043088400440885000008C500C601AF
:100158004508F3004608F4007B08C7004708F50087
:100168008131112180314001410886008701013029
:10017800810741310318810A8D280800F4004301E2
:10018800901AC728C82810297408F100F201F1351F
:10019800F20DF135F20D6730710784008330723D3E
:1001A800850000088F007408F100F201F135F20DA6
:1001B800F135F20D6630710784008330723D850099
:1001C8000008900091017408F100F201F135F20D78
:1001D800F135F20D6830710784008330723D850077
:1001E80000088D007408F100F201F135F20DF135C7
:1001F800F20D6930710784008330723D8500000874
:10020800F300F30EF30DF30D400114087306BF3924
:100218007306940043019016080075080319152900
:1002280016291B297508031D1A291B29202973085B
:100238008331382381314F297508033E86008701B1
:1002480016000104031929292A2947297508033E9C
:1002580086008701403FF600413FF700750A860097
:100268008701403FF800413FF9007908803AFA00D9
:100278007708803A7A02031D432976087802031822
:10028800462947294F29750A8600870101308107C9
:1002980041310318810A7308F600F7017608F30064
:1002A8007708F40008004001980199019A013B3051
:1002B8009200F0309300AE30940088307E01CE007A
:1002C8007030C3003330B8002030C400B9010430A6
:1002D800CF00BA01C501D0013730BB00F030C600ED
:1002E800FF30D1003F30BC00F030C700FF30D200F3
:1002F8005511541153157930F1000330F200833150
:100308003E2381314E01161605307E01A0001130C2
:100318007D01CB001630C50008307E01A4000730EF
:10032800A60015307D01C60008007C08203E860026
:100338008701810142011D1DA229A329AE297C083C
:10034800203E860087018114400159088A00580818
:100358000A00813142019D1CB229B329BE297C08BB
:10036800203E860087010115400157088A0056087B
:100378000A0081317C08203E8600870101080319A4
:10038800C629C729CE29400155088A0054080A0001
:100398008131D12983317223813108008231E522EC
:1003A80081318B170B1700308031C2208131400119
:1003B8003E1DDF29E029EE298231AA228131400140
:1003C800BE1DE729E829EE2982315B2281314001EF
:1003D8003E113E113E1EF129F229F7298231792278
:1003E800813140013E123E1CFA29FB29DB2982316A
:1003F8009522813140013E10DB29803127284E01AA
:1004080017129930F1000130F20083314423823110
:10041800083042019F0090309D0024309E00193022
:100428009B009C017E30F1000330F20083315023A1
:1004380082316A30F1000330F20083314A2382317D
:100448006E30F1000330F2008331562382314001CF
:10045800B801FC01BA01B9014E01171608004001A4
:10046800CD004908CF004808CE00B001B1014D2A9F
:100478004E30CB004B08C1004A08CC004C08C200E3
:100488004D0880314620823140014108B0074208BA
:10049800B13D4E0884004F0885001200031D552AFF
:1004A800562A3C2A3108C9003008C8000800400113
:1004B800BE1D5F2A602A782A753083315C23823119
:1004C80018304001D0008330D1008231D3228231EC
:1004D80003104001181D03140318732A762A4001DB
:1004E8001815782A40011811080003104001181D3A
:1004F80003140318802A832A40011815852A40010D
:1005080018113F08C300C4014308C1004408C200D1
:1005180083310423823140013F0883315C238231D7
:10052800080018304001D0008330D1008231D32236
:10053800823103104001181D03140318A42AA72AA6
:1005480040011815A92A40011811080040013E1D54
:10055800AE2AAF2ABE2AFF30DE07FF30DF3D5E0835
:100568005F04031DB82AB92ABE2ABE15FF30DE0073
:100578000030DF00080016307D01C5001530C600C8
:1005880007307E01A6000830A40043018F01223005
:1005980090008D014001141343019012080052305D
:1005A8004001D2005208D3005108C9005008C800C1
:1005B8005330D2005208CA000030823133228231CF
:1005C80008008231BF228231813157218231833143
:1005D8006123823183317623823182310322823151
:1005E800080040015A085B040319FB2AFC2A012B66
:1005F8005B088A005A080A0083317E0155110800F9
:1006080040014208F4004108F300F501813111214D
:1006180083310800F1004E018D1D132B142B0F2B75
:10062800710842019A00080074346F3467346734E3
:100638006C3469346E34673400347E01551D252BC3
:10064800262B292B8231F522833108004201190813
:10065800F00070084001BF003E16080064008001E9
:100668000131890B332B0034F200720883310E23D9
:100678008331080072084001DB007108DA000800C5
:1006880072084001DD007108DC00080072084001B2
:10069800D7007108D600080072084001D900710817
:1006A800D800080072084001D5007108D40008007D
:1006B800F100710843018C00080051019101930178
:1006C80092010800223400340034003442011D1223
:1006D8001D160800833172238331080083312A23D1
:1006E8008331080050018C01080040013E150800C4
:0606F800FF34003408008D
:020000040001F9
:04000E00ED3FE637A5
:04001400FF1FFF3F8C
:00000001FF
