:020000040000FA
:0400000080312B28F8
:100008007E1480314E01161E0A280B2814280C1E57
:100018000E280F2814288231AB22803140013E156A
:100028000B1F1728182829284E01171E1C281D28C1
:1000380029280D1E20282128292840015D088A002A
:100048005C080A0080314001BE157E10090080312D
:100058002D28FC0120308400003085001F308231BB
:10006800BC228031A03084000030850020308231ED
:10007800BC2280317E1040018031BE28FB00400147
:100088003F0886008701403FC100413FC200410848
:100098008400420885001200253A031D542855287B
:1000A8009A283F08860087010130810741310318EB
:1000B800810AB201B301B601B701FF30B400FF30C5
:1000C800B5003F0886008701403FC100413FC2009C
:1000D80041088400420885001200253A031D75284E
:1000E80076288F283F088600870101308107413133
:1000F8000318810A2530F3000030F4007B08C100A2
:100108004108F50081315E21803101304001BF0096
:100118000030C000BD283F088600870101308107F4
:1001280041310318810ABF01C001BD283F0886007C
:100138008701403FC100413FC20041088400420896
:1001480085000008C300C4014308F3004408F40014
:100158007B08C5004508F50081315E2180314001EA
:100168003F08860087010130810741310318810A61
:100178008928080082316F2280318B170B17EF30E6
:100188004001CE008230CF0082315D2280314001B3
:100198003E1DCF28D028EC283E11A230CE00823058
:1001A800CF0082315D22803103104001181D0314F5
:1001B8000318DF28E22840011815E4284001181127
:1001C8004F308231982280314F30823198228031ED
:1001D8004001BE1DF028F1280529BE110310181D85
:1001E80003140318F828FB2840011815FD284001BE
:1001F80018118E30CE008230CF0082315D228031DE
:10020800CB28B430CE008230CF0082315D228031DD
:1002180002304001D3004530D200A930890B1229A1
:10022800D20B1229D30B12290032CB2880312B286C
:100238004001980199019A013B309200F0309300F7
:10024800AE30940089307E01CE007030C300333068
:10025800B8002030C400B9010430CF00BA01C5018C
:10026800D0013730BB00F030C600FF30D1003F303E
:10027800BC00F030C700FF30D2005511541153159F
:10028800FE30F1000230F2008231C82281314E0185
:10029800161605307E01A00011307D01CB00163006
:1002A800C50008307E01A4000730A60015307D0186
:1002B800C6000800750803196229632968297508AA
:1002C800031D672968296D2973088231C22281318B
:1002D8009C297508033E860087011600010403194E
:1002E8007629772994297508033E86008701403FBF
:1002F800F600413FF700750A86008701403FF80085
:10030800413FF9007908803AFA007708803A7A0282
:10031800031D9029760878020318932994299C29AB
:10032800750A860087010130810741310318810A67
:1003380008007C08203E86008701810142011D1DBE
:10034800A629A729B2297C08203E860087018114A6
:10035800400159088A0058080A00813142019D1C51
:10036800B629B729C2297C08203E860087010115D5
:10037800400157088A0056080A0081317C08203E4F
:100388008600870101080319CA29CB29D22940010F
:1003980055088A0054080A008131D52982312E2255
:1003A800813108004E0117129D30F1000130F20032
:1003B8008231CE228131083042019F0090309D0069
:1003C80024309E0019309B009C01FF30F100023060
:1003D800F2008231DA228131F330F1000230F2008A
:1003E8008231D4228131F730F1000230F2008231BB
:1003F800E02281314001B801FC01BA01B9014E0186
:10040800171608004001CB004708CD004608CC006D
:10041800B001B101202A4C30C9004908BF00480882
:10042800CA004A08C0004B0880314220823140018E
:100438003F08B0074008B13D4C0884004D088500CE
:100448001200031D282A292A0F2A3108C70030085C
:10045800C600080042011908F0007C08283E860002
:100468008701700881000130F0007008FC0708302F
:100478007C02031C402A412A422AFC010130F00078
:1004880070084001B907080016307D01C500153015
:10049800C60007307E01A6000830A40040304301A2
:1004A8008F00900101308D00400114134301901218
:1004B800080050304001D0005008D1004F08C70054
:1004C8004E08C6005130D0005008C80000308231B4
:1004D80006228231080082314822823181311C2172
:1004E80082318231E62282318231FB2282318131AE
:1004F800D6218231080040015A085B040319852A75
:10050800862A8B2A5B088A005A080A0082317E01F3
:1005180055110800533465347234693461346C34CD
:100528002034523478340034F1004E018D1D9D2A58
:100538009E2A992A710842019A00080074346F347F
:10054800673467346C3469346E34673400347E0140
:10055800551DAF2AB02AB32A82317F228231080082
:100568006C346F346F34703469346E3467340034EB
:10057800640080010131890BBD2A0034F200720841
:10058800823198228231080072084001DB0071082C
:10059800DA00080072084001DD007108DC0008007C
:1005A80072084001D7007108D6000800720840019F
:1005B800D9007108D800080072084001D5007108F8
:1005C800D400080051019101930192010800003400
:1005D80040340134003468346534793400344201DD
:1005E8001D121D16080082312E228231080050018A
:0805F8008C0108000800080056
:020000040001F9
:04000E00ED3FE637A5
:04001400FF1FFF3F8C
:00000001FF
