:020000040000FA
:1000000080313328FF3400347E1480314E01161EB7
:100010000A280B2812280C1E0E280F2812288F31B0
:10002000D92780310B1F1528162831284E01171C9F
:100030001A281B2822280D1C1E281F282228873139
:10004000DB2780314E01171E2628272831280D1E58
:100050002A282B28312841014C088A004B080A0025
:1000600080317E1009008031352841018031022025
:100070008031D100803103208031D200FC01400169
:10008000EE01EF01A03084000030850021308F3177
:10009000CA278031203084000130850020308F3124
:1000A000CA2780317E1040018531BE2D4001BD0040
:1000B0003008C4003108C5003208C6003308C70044
:1000C0003408C8003508C9003608CA003708CB0014
:1000D0004430860000308700473FB800B81B7128C5
:1000E00073280130742800304001B900BA01390882
:1000F000C2003A08C300420843040319802881283B
:100100009F28C409C509C609C709C809C909CA0978
:10011000CB09C40A031D9F28C50A031D9F28C60AD0
:10012000031D9F28C70A031D9F28C80A031D9F2877
:10013000C90A031D9F28CA0A031D9F28CB0A410133
:10014000B51BA328A428A828FD30B605FF30B705A5
:100150003508803A4001B80080303802031DB328CA
:100160000130410134020318B628B728BD280130F8
:100170004001BE000030BF00C528410135084001E4
:10018000BF00410134084001BE0041013308400175
:10019000C100410132084001C00042084304031D70
:1001A000D228D328D8284101361DD728D828DD28C1
:1001B000FF304001C007FF30C13D1F304001CC007F
:1001C0000030CD004201BF014E29FF304001CC0775
:1001D000FF30CD3D0A30A000A101A201A301A4017E
:1001E000A501A601A7014408A8004508A9004608E2
:1001F000AA004708AB004808AC004908AD004A080F
:10020000AE004B08AF008231C72280314001210887
:10021000F5002008F4008731272780317408303E2C
:100220004001B8004C08203E8600013087003808A5
:100230008100FF30BE07FF30BF3DFF30C007FF30F9
:10024000C13D0A30A000A101A201A301A401A501A2
:10025000A601A7014408A8004508A9004608AA006D
:100260004708AB004808AC004908AD004A08AE009A
:100270004B08AF008131C621803140012008C40005
:100280002108C5002208C6002308C7002408C800AA
:100290002508C9002608CA002708CB0040014D08E0
:1002A000803AB80080303802031D582901304C02D2
:1002B000031C5B295C298929400144084504460444
:1002C0004704480449044A044B04031D682969296A
:1002D000E5283F08803AB80080303802031D7229B3
:1002E00001303E02031875297629E52840014108AE
:1002F000803AB80080303802031D80290130400266
:10030000031C8329842989294101B6188829892950
:10031000E528400142084304031D8F2990299529AF
:100320004101361D94299529B229FF304001CC079F
:10033000FF30CD3D42084304031D9F29A029A52974
:100340002B30BB000030BC00A9292D30BB00003091
:10035000BC003B08B8004C08203E860001308700F6
:100360003808810040014C08203EB8003808A7003A
:100370004108A9004008A8003D0884318C24803140
:1003800040012808B1002708B0000800F301203020
:10039000860000308700473FF100F11FD029D129A6
:1003A000F2294001A009A109A209A309A409A509EC
:1003B000A609A709A00A031DF029A10A031DF02917
:1003C000A20A031DF029A30A031DF029A40A031D94
:1003D000F029A50A031DF029A60A031DF029A70A82
:1003E000F301F30A2830860000308700473FF10010
:1003F000F11FFB29FC291F2A4001A809A909AA0904
:10040000AB09AC09AD09AE09AF09A80A031D1B2A47
:10041000A90A031D1B2AAA0A031D1B2AAB0A031DD6
:100420001B2AAC0A031D1B2AAD0A031D1B2AAE0A98
:10043000031D1B2AAF0A0130F1007108F306743066
:100440008600003087000830F10000301E00F10BFC
:10045000262A400120082104220423042404250420
:10046000260427040319352A362A922AF201F20AB1
:10047000452AA035A10DA20DA30DA40DA50DA60D15
:10048000A70D0130F1007108F207A71F482A492A79
:10049000392AF435F50DF60DF70DF80DF90DFA0DB5
:1004A000FB0D27082F02031D6F2A26082E02031DAD
:1004B0006F2A25082D02031D6F2A24082C02031D14
:1004C0006F2A23082B02031D6F2A22082A02031D0C
:1004D0006F2A21082902031D6F2A20082802031C05
:1004E000722A732A842A2008A8022108A93B22081C
:1004F000AA3B2308AB3B2408AC3B2508AD3B2608B0
:10050000AE3B2708AF3B7414A736A60CA50CA40C71
:10051000A30CA20CA10CA00C0130F202031D912A25
:10052000922A492A73080319962A972AB52AF409A8
:10053000F509F609F709F809F909FA09FB09F40AB6
:10054000031DB52AF50A031DB52AF60A031DB52AAF
:10055000F70A031DB52AF80A031DB52AF90A031D77
:10056000B52AFA0A031DB52AFB0A74084001A00047
:100570007508A1007608A2007708A3007808A400F7
:100580007908A5007A08A6007B08A7000800F301F7
:100590002830860000308700473FF100F11FD12A44
:1005A000D22AF32A4001A809A909AA09AB09AC0972
:1005B000AD09AE09AF09A80A031DF12AA90A031D56
:1005C000F12AAA0A031DF12AAB0A031DF12AAC0A7B
:1005D000031DF12AAD0A031DF12AAE0A031DF12AFB
:1005E000AF0AF301F30A2030860000308700473F4E
:1005F000F100F11FFC2AFD2A1C2B4001A009A109D2
:10060000A209A309A409A509A609A709A00A031D0F
:100610001C2BA10A031D1C2BA20A031D1C2BA30AC1
:10062000031D1C2BA40A031D1C2BA50A031D1C2B38
:10063000A60A031D1C2BA70A40012008210422043E
:10064000230424042504260427040319282B292B1A
:100650007C2BF201F20A382BA035A10DA20DA30DBF
:10066000A40DA50DA60DA70D0130F1007108F2072C
:10067000A71F3B2B3C2B2C2B27082F02031D5A2B8B
:1006800026082E02031D5A2B25082D02031D5A2B66
:1006900024082C02031D5A2B23082B02031D5A2B5E
:1006A00022082A02031D5A2B21082902031D5A2B56
:1006B00020082802031C5D2B5E2B6E2B2008A8024D
:1006C0002108A93B2208AA3B2308AB3B2408AC3BEA
:1006D0002508AD3B2608AE3B2708AF3BA736A60C46
:1006E000A50CA40CA30CA20CA10CA00C0130F202CE
:1006F000031D7B2B7C2B3C2B73080319802B812B38
:100700009F2BA809A909AA09AB09AC09AD09AE0933
:10071000AF09A80A031D9F2BA90A031D9F2BAA0A34
:10072000031D9F2BAB0A031D9F2BAC0A031D9F2BA0
:10073000AD0A031D9F2BAE0A031D9F2BAF0A40017C
:100740002808A0002908A1002A08A2002B08A3005D
:100750002C08A4002D08A5002E08A6002F08A7002D
:1007600008004001DD004E0886008701403FD000B0
:10077000413FD10050088400510885001200253AFD
:10078000031DC32BC42B682C4E0886008701013043
:10079000810741310318810A4101B201B301B60159
:1007A000B701FF30B400FF30B50040014E088600AD
:1007B0008701403FD000413FD100500884005108DC
:1007C00085001200643A0319E62BE72BF82B4E083C
:1007D00086008701403FD000413FD100500884008F
:1007E000510885001200693A031DF72BF82B332CB2
:1007F0004E08860087010130810741310318810AC4
:100800004F088600870101088400850102308107B6
:10081000003FD000013FD1005008D5005108D6005C
:10082000890D893B8909D700D800D900DA00DB009F
:10083000DC005508B0005608B1005708B20058084F
:10084000B3005908B4005A08B5005B08B6005C084C
:10085000B7005D0880315620833140013108CF0058
:100860003008CE008B2C4E0886008701403FD00018
:10087000413FD10050088400510885001200253AFC
:10088000031D432C442C5D2C4E088600870101304B
:10089000810741310318810A2530F3000030F4004C
:1008A0005D08D0005008F5008531342583310130D2
:1008B0004001CE000030CF008B2C4E08860087010F
:1008C0000130810741310318810ACE01CF018B2C01
:1008D0004E0886008701403FD000413FD1005008BC
:1008E0008400510885000008D200D3015208F300AB
:1008F0005308F4005D08D4005408F5008531342510
:10090000833140014E088600870101308107413163
:100910000318810A572C08004001AF004101361C22
:10092000922C932C9C2C40012F08AA002A08FB0033
:1009300027088631C62684314001A91BA02CA12C92
:10094000A62C2908AE002808AD00A82CAD01AE01E8
:10095000AB01AC01BC2C2030F3000030F4004001AE
:100960002F08AA002A08F50085313425843101308A
:100970004001AB070030AC3D2C08803AAA002E089D
:10098000803A2A02031DC62C2D082B02031CC92CF9
:10099000CA2CAB2C41013618CE2CCF2CD82C4001C0
:1009A0002F08AA002A08FB0027088631C6268431B2
:1009B0004001270887310D27843140012D08710738
:1009C000A7002E08723DA8000800F4004301901A09
:1009D000EA2CEB2C332D7408F100F201F135F20D05
:1009E000F135F20D0130710784008830723D8500C9
:1009F00000088F007408F100F201F135F20DF135B5
:100A0000F20D0030710784008830723D85000008C7
:100A1000900091017408F100F201F135F20DF13509
:100A2000F20D0230710784008830723D85000008A5
:100A30008D007408F100F201F135F20DF135F20D7F
:100A40000330710784008830723D85000008F30090
:100A5000F30EF30DF30D400114087306BF3973064E
:100A6000940043019016080075080319382D392D9C
:100A70003E2D7508031D3D2D3E2D432D73088F31EE
:100A8000C4278531722D7508033E86008701160044
:100A9000010403194C2D4D2D6A2D7508033E860067
:100AA0008701403FF600413FF700750A8600870145
:100AB000403FF800413FF9007908803AFA00770892
:100AC000803A7A02031D662D760878020318692D94
:100AD0006A2D722D750A8600870101308107413128
:100AE0000318810A7308F600F7017608F300770807
:100AF000F40008004001980199019A013B309200EE
:100B0000F0309300AE30940088307E01CE0070301B
:100B1000C3003330B8002030C400B9010430CF0026
:100B2000BA01C501D0013730BB00F030C600FF303C
:100B3000D1003F30BC00F030C700FF30D20055116B
:100B4000541153158130F1000F30F2008F31BE2760
:100B500085314E01161605307E01A00012307D0150
:100B6000C3001130CB001630C50008307E01A40050
:100B70000730A60015307D01C60008008731972791
:100B8000853100308731EA2785318B170B1700300C
:100B90008431E524853140016F1DCF2DD02DE12D0D
:100BA0008731412785314001EF1DD72DD82DE12D0B
:100BB00086313026853140016F116F118F318427C6
:100BC000853140016F1EE52DE62DEB2D8631EF2698
:100BD000853140016F126F1CEE2DEF2DCB2D87312B
:100BE0006E27853140016F10CB2D803133287C0872
:100BF000A03E86008701810142011D1D002E012EAD
:100C00000C2E7C08A03E8600870181144101480813
:100C10008A0047080A00863142019D1C102E112EC1
:100C20001C2E7C08A03E8600870101154101460864
:100C30008A0045080A0086317C08A03E86008701AC
:100C400001080319242E252E2C2E410144088A0068
:100C500043080A0086312F2E8F318A2785310800FC
:100C60004001EF1D342E352E622E75308F319B27BB
:100C7000863103104001181D03140318402E432E23
:100C800040011815452E400118115930E6008730F3
:100C9000E70041013E08CD00CE014D084001E800CB
:100CA00041014E084001E90041013F08CF00D00159
:100CB0004F084001EA00410150084001EB00873134
:100CC000AA27863108004E011712F730F1000530CF
:100CD000F2008F31B8278631083042019F009030F2
:100CE0009D0024309E0019309B009C018030F10053
:100CF0000F30F2008F31AC2786319230F1000F3087
:100D0000F2008F31B22786318E30F1000F30F200C1
:100D10008F31A62786314101B801FC014001EE0167
:100D20004101B9014E01171608004001E3005F08B8
:100D3000E5005E08E4004101B001B101B32E64306A
:100D4000E1006108CE006008E2006208CF0063089D
:100D50008331B123863140014E084101B007400183
:100D60004F084101B13D40016408840065088500D9
:100D70001200031DBC2EBD2E9F2E410131084001E3
:100D8000DF00410130084001DE0008004001A600FC
:100D9000A401A501DE2E2308A000A1012008F30074
:100DA0002108F4007B08A2002208F50085313425D3
:100DB000863101304001A4070030A53D24082607F4
:100DC000A00020088600013087000108A10021084A
:100DD000A3002308031DED2EEE2ECB2E08000310DA
:100DE0004001181D03140318F62EF92E40011815A2
:100DF000FB2E4001181141013D084001A200A30152
:100E00002208A0002308A1008F31F6278631410176
:100E10003D088F319B2786310800F5007508F300E7
:100E20007308F400172F0130F3007308F5077508F5
:100E30008600013087000108031D1F2F202F132F6C
:100E400074087502F100F201F11BF2030800750845
:100E5000803AF60080307602031D302F0130740294
:100E60000318332F342F402F7409F6007509F7004B
:100E7000F60A0319F70A7608F4007708F500402F00
:100E8000080040016F1D452F462F582FFF304101AC
:100E9000D107FF30D23D51085204031D502F512F6E
:100EA000582F4001EF15FF304101D1000030D20032
:100EB0000800443469346734693470346F347434EE
:100EC0003A34203448343D342534643420344C34AE
:100ED0003D34253464340A3420340034F730400182
:100EE000E6008730E7008731AA27873103104001E9
:100EF000181D031403187D2F802F40011815822F11
:100F000040011811080016307D01C5001530C600DB
:100F100007307E01A6000830A40043018F01223073
:100F200090008D0140011413430190120800873195
:100F30008327873185317A2587318F31962787310D
:100F40008F31872787318731BC27873186316326E8
:100F50008731080068304001EC006C08ED0067083C
:100F6000DF006608DE006D30EC006C08E000003049
:100F7000863195268731080041019E019B019C0125
:100F800001309D004E011714E230F1000F30F200E5
:100F90008F31A02787310800410149084A0403190D
:100FA000D22FD32FD82F4A088A0049080A00873148
:100FB0007E01551108004E010D1041014108420407
:100FC0000319E32FE42FE92F42088A0041080A00A1
:100FD00087310800F2007208F100F10DF10D4101B6
:100FE0001D087106033971069D001D140800743434
:100FF0006F34673467346C3469346E34673400346A
:081000002234003400340034F6
:101F0000080040016F15080041019D1408005001B0
:101F10008C0108008F31D0278F3108008F318A273C
:101F20008F31080042011D121D1608005101910158
:101F3000930192010800F100710843018C00080030
:101F400072084101C2007108C10008007208410115
:101F5000C4007108C300080072084101C80071087C
:101F6000C700080072084101C6007108C5000800DA
:101F700072084101CC007108CB00080072084101D1
:101F8000CA007108C9000800F20072088F31EC27FE
:101F90008F310800640080010131890BCB2F0034A0
:101FA00042011908F00070084101BD0040016F16A0
:101FB00008007E01551DDD2FDE2FE12F8731CC2754
:101FC0008F31080041011B08F0007008BF001C0899
:101FD000F0007008BE000800F1004E018D1DF12FC9
:101FE000F22FED2F710842019A00080040012108EC
:101FF000F4002008F300F501853134258F31080005
:020000040001F9
:04000E00ED3FE637A5
:04001400FF1FFF3F8C
:00000001FF
