:020000040000FA
:04000000803114280F
:100008007E1480314E01161E0A280B2812280C1E59
:100018000E280F2812288131C82180317E1009004E
:100028008031162820308400003085002930813145
:10003800D12180317E10400181313A29FC007A08B3
:1000480086008701403F4001C900413FCA00490876
:1000580084004A0885001200253A031D34283528F3
:1000680079287A0886008701013081074131031811
:10007800810AC201C301C601C701FF30C400FF30B5
:10008800C5007A0886008701403FC900413FCA0081
:10009800490884004A0885001200253A031D55289E
:1000A80056286E287A088600870101308107413179
:1000B8000318810A2530F2000030F3007C08C900DB
:1000C8004908F40080319C2080310130FA0000306A
:1000D800FB009B287A08860087010130810741319F
:1000E8000318810AFA01FB019B287A088600870118
:1000F800403FC900413FCA00490884004A088500BA
:100108000008CB00CC014B08F2004C08F3007C0837
:10011800CD004D08F40080319C2080317A0886009B
:1001280087010130810741310318810A69280800D5
:1001380074080319A028A128A6287408031DA52857
:10014800A628AB2872088131D7218031DA287408B3
:10015800033E86008701160001040319B428B52858
:10016800D2287408033E86008701403FF500413FCE
:10017800F600740A86008701403FF700413FF80007
:100188007808803AF9007608803A7902031DCE286B
:10019800750877020318D128D228DA28740A86004D
:1001A80087010130810741310318810A08004001A5
:1001B800980199019A013B30920070309300FF300A
:1001C8009400FB307E01CE00D030C3003330B8003D
:1001D800C401B9010430CF00BA01C501D0013730DC
:1001E800BB00F030C600FF30D1003F30BC00F0301B
:1001F800C700FF30D200551154155311FD30F000DF
:100208000130F1008131DD2180314E0116160D30AB
:100218007D01CB0005307E019F0008004001D3001E
:100228004F08D5004E08D400C001C1012C29543014
:10023800D1005108FA005008D2005208FB005308B8
:100248008031222081317A084001C0077B08C13DF6
:1002580054088400550885001200031D34293529E7
:100268001B294108CF004008CE0008008131B12188
:100278008131A4304001D6008130D70081318321FB
:10028800813103104001181D031403184C294F290C
:100298004001181551294001181102304001DA00B7
:1002A8004530D900A930890B5729D90B5729DA0BC2
:1002B80057290032452980311428083042019F000F
:1002C80090309D0024309E0019309B009C01003026
:1002D800F0000030F1008131E92181310030F00077
:1002E8000030F1008131E32181310030F00000302D
:1002F800F1008131EF2181314001C80108005830F7
:10030800FD007D084001D8005708CF005608CE00F0
:100318005830FD007D08D000003081311221813134
:10032800080040016108620403199B299C29A1293E
:1003380062088A0061080A0081317E0155110800AF
:1003480049346E3469347434693461346C346934D2
:100358007A3469346E34673400348031DB2081317B
:100368008131F52181318131FA2181318131612158
:1003780081310800F0004E018D1DC329C429BF2911
:10038800700842019A0008007E01551DCC29CD292C
:10039800D029813195218131080064008001013123
:1003A800890BD2290034F10071088131BE218131D5
:1003B800080071084001E2007008E10008007108B7
:1003C8004001DE007008DD00080071084001E0000F
:1003D8007008DF00080071084001DC007008DB00CD
:1003E80008005101910193019201080050018C010C
:0403F80008000800F1
:020000040001F9
:04000E00ED3FE63F9D
:04001400FF1FFF3F8C
:00000001FF
