:020000040000FA
:1000000080312728FF3400347E1480314E01161EC3
:100010000A280B2812280C1E0E280F2812288731B8
:10002000B92780310B1F1528162825284E01171EC9
:100030001A281B2825280D1E1E281F2825284101A7
:100040006A088A0069080A0080317E100900803140
:1000500029284101803102208031EB0080310320CA
:100060008031EC00FC014001EE01EF01A030840082
:100070000030850041308731D22780317E10400129
:100080008531E12D4001BD003008C4003108C500B4
:100090003208C6003308C7003408C8003508C90054
:1000A0003608CA003708CB0044308600003087008D
:1000B000473FB800B81B5D285F280130602800303A
:1000C0004001B900BA013908C2003A08C300420829
:1000D000430403196C286D288B28C409C509C60977
:1000E000C709C809C909CA09CB09C40A031D8B2855
:1000F000C50A031D8B28C60A031D8B28C70A031DCA
:100100008B28C80A031D8B28C90A031D8B28CA0A1D
:10011000031D8B28CB0A4101B51B8F2890289428FA
:10012000FD30B605FF30B7053508803A4001B8000C
:1001300080303802031D9F2801304101340203182A
:10014000A228A328A92801304001BE000030BF002A
:10015000B128410135084001BF0041013408400188
:10016000BE00410133084001C10041013208400195
:10017000C00042084304031DBE28BF28C428410113
:10018000361DC328C428C928FF304001C007FF30EE
:10019000C13D1F304001CC000030CD004101E001E5
:1001A0003929FF304001CC07FF30CD3D0A30A00097
:1001B000A101A201A301A401A501A601A701440870
:1001C000A8004508A9004608AA004708AB0048084F
:1001D000AC004908AD004A08AE004B08AF008231C0
:1001E000B122803140012108F5002008F400863159
:1001F000E82680317408303E4001B8004C08C13E0A
:100200008600870138088100FF30BE07FF30BF3D00
:10021000FF30C007FF30C13D0A30A000A101A2019C
:10022000A301A401A501A601A7014408A80045084F
:10023000A9004608AA004708AB004808AC004908D6
:10024000AD004A08AE004B08AF008131B0218031CB
:1002500040012008C4002108C5002208C600230868
:10026000C7002408C8002508C9002608CA002708B6
:10027000CB0040014D08803AB80080303802031DA1
:10028000432901304C02031C4629472974294001A7
:100290004408450446044704480449044A044B04FE
:1002A000031D53295429D1283F08803AB8008030D3
:1002B0003802031D5D2901303E02031860296129BF
:1002C000D12840014108803AB80080303802031D2F
:1002D0006B2901304002031C6E296F2974294101EA
:1002E000B61873297429D128400142084304031D1C
:1002F0007A297B2980294101361D7F2980299C2963
:10030000FF304001CC07FF30CD3D42084304031DC0
:100310008A298B2990292B30BB000030BC009429FE
:100320002D30BB000030BC003B08B8004C08C13E7B
:10033000860087013808810040014C08C13EB800A2
:100340003808A7004108A9004008A8003D088431EA
:100350007624803140012808B1002708B000080049
:10036000F3012030860000308700473FF100F11F85
:10037000BA29BB29DC294001A009A109A209A309C6
:10038000A409A509A609A709A00A031DDA29A10A3B
:10039000031DDA29A20A031DDA29A30A031DDA299B
:1003A000A40A031DDA29A50A031DDA29A60A031DDA
:1003B000DA29A70AF301F30A283086000030870003
:1003C000473FF100F11FE529E629092A4001A80964
:1003D000A909AA09AB09AC09AD09AE09AF09A80A78
:1003E000031D052AA90A031D052AAA0A031D052AB9
:1003F000AB0A031D052AAC0A031D052AAD0A031D1D
:10040000052AAE0A031D052AAF0A0130F100710862
:10041000F30674308600003087000830F1000030A9
:100420001E00F10B102A400120082104220423049D
:10043000240425042604270403191F2A202A7C2AC1
:10044000F201F20A2F2AA035A10DA20DA30DA40DD1
:10045000A50DA60DA70D0130F1007108F207A71F29
:10046000322A332A232AF435F50DF60DF70DF80D4F
:10047000F90DFA0DFB0D27082F02031D592A260836
:100480002E02031D592A25082D02031D592A24086E
:100490002C02031D592A23082B02031D592A220866
:1004A0002A02031D592A21082902031D592A20085E
:1004B0002802031C5C2A5D2A6E2A2008A802210853
:1004C000A93B2208AA3B2308AB3B2408AC3B2508E8
:1004D000AD3B2608AE3B2708AF3B7414A736A60CED
:1004E000A50CA40CA30CA20CA10CA00C0130F202D0
:1004F000031D7B2A7C2A332A73080319802A812A48
:100500009F2AF409F509F609F709F809F909FA0922
:10051000FB09F40A031D9F2AF50A031D9F2AF60A08
:10052000031D9F2AF70A031D9F2AF80A031D9F2A0D
:10053000F90A031D9F2AFA0A031D9F2AFB0A740861
:100540004001A0007508A1007608A2007708A3006A
:100550007808A4007908A5007A08A6007B08A700FF
:100560000800F3012830860000308700473FF10083
:10057000F11FBB2ABC2ADD2A4001A809A909AA0942
:10058000AB09AC09AD09AE09AF09A80A031DDB2A06
:10059000A90A031DDB2AAA0A031DDB2AAB0A031DD5
:1005A000DB2AAC0A031DDB2AAD0A031DDB2AAE0AD7
:1005B000031DDB2AAF0AF301F30A20308600003066
:1005C0008700473FF100F11FE62AE72A062B40018A
:1005D000A009A109A209A309A409A509A609A709B7
:1005E000A00A031D062BA10A031D062BA20A031D48
:1005F000062BA30A031D062BA40A031D062BA50A1E
:10060000031D062BA60A031D062BA70A400120087E
:1006100021042204230424042504260427040319A6
:10062000122B132B662BF201F20A222BA035A10DFF
:10063000A20DA30DA40DA50DA60DA70D0130F1006F
:100640007108F207A71F252B262B162B27082F0230
:10065000031D442B26082E02031D442B25082D02C2
:10066000031D442B24082C02031D442B23082B02BA
:10067000031D442B22082A02031D442B21082902B2
:10068000031D442B20082802031C472B482B582B02
:100690002008A8022108A93B2208AA3B2308AB3B5B
:1006A0002408AC3B2508AD3B2608AE3B2708AF3BF2
:1006B000A736A60CA50CA40CA30CA20CA10CA00C94
:1006C0000130F202031D652B662B262B73080319DC
:1006D0006A2B6B2B892BA809A909AA09AB09AC09BC
:1006E000AD09AE09AF09A80A031D892BA90A031D8C
:1006F000892BAA0A031D892BAB0A031D892BAC0A7F
:10070000031D892BAD0A031D892BAE0A031D892BFE
:10071000AF0A40012808A0002908A1002A08A20069
:100720002B08A3002C08A4002D08A5002E08A60065
:100730002F08A70008004001DD004E088600870151
:10074000403FD000413FD10050088400510885004F
:100750001200253A031DAD2BAE2B522C4E088600FD
:1007600087010130810741310318810A4101B2013B
:10077000B301B601B701FF30B400FF30B50040014E
:100780004E0886008701403FD000413FD10050080D
:100790008400510885001200643A0319D02BD12B34
:1007A000E22B4E0886008701403FD000413FD10038
:1007B00050088400510885001200693A031DE12B9E
:1007C000E22B1D2C4E088600870101308107413144
:1007D0000318810A4F0886008701010884008501FB
:1007E00002308107003FD000013FD1005008D50002
:1007F0005108D600890D893B8909D700D800D90056
:10080000DA00DB00DC005508B0005608B1005708DC
:10081000B2005808B3005908B4005A08B5005B0884
:10082000B6005C08B7005D0880314220833140018A
:100830003108CF003008CE00752C4E0886008701A5
:10084000403FD000413FD10050088400510885004E
:100850001200253A031D2D2C2E2C472C4E08860005
:1008600087010130810741310318810A2530F300E7
:100870000030F4005D08D0005008F50085311E25D9
:10088000833101304001CE000030CF00752C4E087E
:10089000860087010130810741310318810ACE01AA
:1008A000CF01752C4E0886008701403FD000413FA4
:1008B000D10050088400510885000008D200D301FF
:1008C0005208F3005308F4005D08D4005408F50002
:1008D00085311E25833140014E0886008701013095
:1008E000810741310318810A412C08004001AF0003
:1008F0004101361C7C2C7D2C862C40012F08AA003F
:100900002A08FB00270886317C2684314001A91B78
:100910008A2C8B2C902C2908AE002808AD00922C34
:10092000AD01AE01AB01AC01A62C2030F3000030CC
:10093000F40040012F08AA002A08F50085311E2581
:10094000843101304001AB070030AC3D2C08803AC7
:10095000AA002E08803A2A02031DB02C2D082B0273
:10096000031CB32CB42C952C41013618B82CB92C8F
:10097000C22C40012F08AA002A08FB002708863154
:100980007C268431400127088731022784314001C9
:100990002D087107A7002E08723DA8000800F4007A
:1009A0004301901AD42CD52C1D2D7408F100F201AE
:1009B000F135F20DF135F20DFD307107840087300D
:1009C000723D850000088F007408F100F201F135D6
:1009D000F20DF135F20DFC30710784008730723D65
:1009E00085000008900091017408F100F201F135D2
:1009F000F20DF135F20DFE30710784008730723D43
:100A0000850000088D007408F100F201F135F20D47
:100A1000F135F20DFF30710784008730723D85009B
:100A20000008F300F30EF30DF30D400114087306F4
:100A3000BF39730694004301901608007508031926
:100A4000222D232D282D7508031D272D282D2D2D12
:100A500073088731D82785315C2D7508033E8600E1
:100A60008701160001040319362D372D542D750802
:100A7000033E86008701403FF600413FF700750ABC
:100A800086008701403FF800413FF9007908803A2D
:100A9000FA007708803A7A02031D502D7608780212
:100AA0000318532D542D5C2D750A860087010130E3
:100AB000810741310318810A7308F600F7017608AF
:100AC000F3007708F40008004001980199019A01A9
:100AD0003B309200F0309300AE30940088307E01BD
:100AE000CE007030C3003330B8002030C400B901EC
:100AF0000430CF00BA01C501D0013730BB00F0305F
:100B0000C600FF30D1003F30BC00F030C700FF30DE
:100B1000D200551154115315E130F1000F30F2009D
:100B20008731DE2785314E01161605307E01A00083
:100B300012307D01C3001130CB001630C5000830E3
:100B40007E01A4000730A60015307D01C600080014
:100B50007C08A03E86008701810142011D1DB12D48
:100B6000B22DBD2D7C08A03E860087018114410175
:100B700066088A0065080A00853142019D1CC12D66
:100B8000C22DCD2D7C08A03E8600870101154101B4
:100B900064088A0063080A0085317C08A03E86004C
:100BA000870101080319D52DD62DDD2D41016208DD
:100BB0008A0061080A008531E02D8F31EA278531EE
:100BC000080087315C2785318B170B170030843183
:100BD000CF2485318F31E427853140016F1DF12D00
:100BE000F22D032E87311B2785314001EF1DF92D92
:100BF000FA2D032E8631A426853140016F116F1125
:100C00008F31E427853140016F1E072E082E0D2EEF
:100C10008631CA26853140016F126F1C102E112EAD
:100C2000ED2D87313327853140016F10ED2D803157
:100C300027284E011712A830F1000530F200873145
:100C4000E4278631083042019F0090309D00243017
:100C50009E0019309B009C01E030F1000F30F20043
:100C60008731F0278631F230F1000F30F200873102
:100C7000EA278631EE30F1000F30F2008731F62797
:100C800086314101BA01FC014001EE014101BB0185
:100C90004E01171608004001E3005F08E5005E08FA
:100CA000E4004101B001B101692E6430E100610846
:100CB000CE006008E2006208CF00630883319B2306
:100CC000863140014E084101B00740014F08410103
:100CD000B13D400164088400650885001200031DD1
:100CE000722E732E552E410131084001DF00410163
:100CF00030084001DE0008004001A600A401A50163
:100D0000942E2308A000A1012008F3002108F4007C
:100D10007B08A2002208F50085311E2586310130AE
:100D20004001A4070030A53D24082607A0002008A4
:100D3000860087010108A1002108A3002308031DE4
:100D4000A22EA32E812E08004001EF1DA82EA92E51
:100D5000C92E75308F31FB27863103104001181DD5
:100D600003140318B42EB72E40011815B92E4001F4
:100D700018119030E6008730E70041011C0840015F
:100D8000EC00ED016C08E8006D08E90087316F2781
:100D90008631080003104001181D03140318D12EDA
:100DA000D42E40011815D62E4001181141013F08DC
:100DB0004001A200A3012208A0002308A10087315E
:100DC0009C27863141013F088F31FB27863108007F
:100DD0007508803AF60080307602031DF12E01304E
:100DE00074020318F42EF52E012F7409F60075090C
:100DF000F700F60A0319F70A7608F4007708F500F9
:100E0000012F0800F5007508F3007308F4000C2F9B
:100E10000130F3007308F5077508860087010108A3
:100E2000031D132F142F082F74087502F100F2010F
:100E3000F11BF203080040016F1D1F2F202F322FDE
:100E4000FF304101EB07FF30EC3D6B086C04031DE4
:100E50002A2F2B2F322F4001EF15FF304101EB00DD
:100E60000030EC000800B0304001E6008730E700B9
:100E700087316F27873103104001181D03140318B1
:100E8000422F452F40011815472F40011811080027
:100E900016307D01C5001530C60007307E01A60062
:100EA0000830A40043018F01223090008D014001E1
:100EB0001413430190120800873148278731853188
:100EC000642587318F31F62787318F31E7278731C6
:100ED0008731CB2787318631192687310800683062
:100EE0004001EA006A08EB006708DF006608DE00E0
:100EF0006B30EA006A08E000003086314B2687310B
:100F000008004101670868040319872F882F8D2F77
:100F100068088A0067080A0087317E0155110800B9
:100F2000443469346734693470346F3474343A3417
:100F3000253464340A34003440012108F4002008C8
:100F4000F300F50185311E2587310800F1004E01BF
:100F50008D1DAB2FAC2FA72F710842019A000800FE
:100F600074346F34673467346C3469346E34673486
:100F700000347E01551DBD2FBE2FC12F8731812723
:100F80008731080042011908F00070084101BF00D4
:100F900040016F16080041019E019B019C01013038
:100FA0009D000800640080010131890BD32F0034BB
:100FB000F20072088731A6278731080072084101C4
:100FC000E8007108E700080072084101EA007108B2
:100FD000E900080072084101E4007108E30008001C
:100FE00072084101E6007108E5000800720841013D
:100FF000E2007108E10008002234003400340034BB
:101FC000080040016F15080041019D1408005001F0
:101FD0008C0108008731C2278F3108008F31EA2732
:101FE0008F31080042011D121D1608005101910198
:101FF000930192010800F100710843018C00080070
:020000040001F9
:04000E00ED3FE637A5
:04001400FF1FFF3F8C
:00000001FF
